{
  "contractName": "PAKToken",
  "abi": [
    {
      "inputs": [],
      "stateMutability": "nonpayable",
      "type": "constructor"
    },
    {
      "anonymous": false,
      "inputs": [
        {
          "indexed": true,
          "internalType": "address",
          "name": "_owner",
          "type": "address"
        },
        {
          "indexed": true,
          "internalType": "address",
          "name": "_spender",
          "type": "address"
        },
        {
          "indexed": false,
          "internalType": "uint256",
          "name": "_value",
          "type": "uint256"
        }
      ],
      "name": "Approval",
      "type": "event"
    },
    {
      "anonymous": false,
      "inputs": [
        {
          "indexed": true,
          "internalType": "address",
          "name": "_from",
          "type": "address"
        },
        {
          "indexed": true,
          "internalType": "address",
          "name": "_to",
          "type": "address"
        },
        {
          "indexed": false,
          "internalType": "uint256",
          "name": "_value",
          "type": "uint256"
        }
      ],
      "name": "Transfer",
      "type": "event"
    },
    {
      "inputs": [],
      "name": "decimals",
      "outputs": [
        {
          "internalType": "uint8",
          "name": "",
          "type": "uint8"
        }
      ],
      "stateMutability": "view",
      "type": "function"
    },
    {
      "inputs": [],
      "name": "name",
      "outputs": [
        {
          "internalType": "string",
          "name": "",
          "type": "string"
        }
      ],
      "stateMutability": "view",
      "type": "function"
    },
    {
      "inputs": [],
      "name": "symbol",
      "outputs": [
        {
          "internalType": "string",
          "name": "",
          "type": "string"
        }
      ],
      "stateMutability": "view",
      "type": "function"
    },
    {
      "inputs": [],
      "name": "totalSupply",
      "outputs": [
        {
          "internalType": "uint256",
          "name": "",
          "type": "uint256"
        }
      ],
      "stateMutability": "view",
      "type": "function"
    },
    {
      "inputs": [
        {
          "internalType": "address",
          "name": "tokenOwner",
          "type": "address"
        }
      ],
      "name": "balanceOf",
      "outputs": [
        {
          "internalType": "uint256",
          "name": "balance",
          "type": "uint256"
        }
      ],
      "stateMutability": "view",
      "type": "function"
    },
    {
      "inputs": [
        {
          "internalType": "address",
          "name": "to",
          "type": "address"
        },
        {
          "internalType": "uint256",
          "name": "tokens",
          "type": "uint256"
        }
      ],
      "name": "transfer",
      "outputs": [
        {
          "internalType": "bool",
          "name": "success",
          "type": "bool"
        }
      ],
      "stateMutability": "nonpayable",
      "type": "function"
    },
    {
      "inputs": [
        {
          "internalType": "address",
          "name": "spender",
          "type": "address"
        },
        {
          "internalType": "uint256",
          "name": "tokens",
          "type": "uint256"
        }
      ],
      "name": "approve",
      "outputs": [
        {
          "internalType": "bool",
          "name": "success",
          "type": "bool"
        }
      ],
      "stateMutability": "nonpayable",
      "type": "function"
    },
    {
      "inputs": [
        {
          "internalType": "address",
          "name": "from",
          "type": "address"
        },
        {
          "internalType": "address",
          "name": "to",
          "type": "address"
        },
        {
          "internalType": "uint256",
          "name": "tokens",
          "type": "uint256"
        }
      ],
      "name": "transferFrom",
      "outputs": [
        {
          "internalType": "bool",
          "name": "success",
          "type": "bool"
        }
      ],
      "stateMutability": "nonpayable",
      "type": "function"
    },
    {
      "inputs": [
        {
          "internalType": "address",
          "name": "tokenOwner",
          "type": "address"
        },
        {
          "internalType": "address",
          "name": "spender",
          "type": "address"
        }
      ],
      "name": "allowance",
      "outputs": [
        {
          "internalType": "uint256",
          "name": "remaining",
          "type": "uint256"
        }
      ],
      "stateMutability": "view",
      "type": "function"
    },
    {
      "inputs": [
        {
          "internalType": "address",
          "name": "spender",
          "type": "address"
        },
        {
          "internalType": "uint256",
          "name": "tokens",
          "type": "uint256"
        },
        {
          "internalType": "bytes",
          "name": "data",
          "type": "bytes"
        }
      ],
      "name": "approveAndCall",
      "outputs": [
        {
          "internalType": "bool",
          "name": "success",
          "type": "bool"
        }
      ],
      "stateMutability": "nonpayable",
      "type": "function"
    },
    {
      "inputs": [],
      "name": "fallback",
      "outputs": [],
      "stateMutability": "payable",
      "type": "function"
    },
    {
      "inputs": [
        {
          "internalType": "address",
          "name": "tokenAddress",
          "type": "address"
        },
        {
          "internalType": "uint256",
          "name": "tokens",
          "type": "uint256"
        }
      ],
      "name": "transferAnyERC20Token",
      "outputs": [
        {
          "internalType": "bool",
          "name": "success",
          "type": "bool"
        }
      ],
      "stateMutability": "nonpayable",
      "type": "function"
    },
    {
      "inputs": [
        {
          "internalType": "address",
          "name": "tokenAddress",
          "type": "address"
        },
        {
          "internalType": "uint256",
          "name": "tokens",
          "type": "uint256"
        }
      ],
      "name": "transferReserveToken",
      "outputs": [
        {
          "internalType": "bool",
          "name": "success",
          "type": "bool"
        }
      ],
      "stateMutability": "nonpayable",
      "type": "function"
    }
  ],
  "bytecode": "0x60806040523480156200001157600080fd5b506040518060400160405280600381526020017f504b540000000000000000000000000000000000000000000000000000000000815250600090805190602001906200005f9291906200023d565b506040518060400160405280601181526020017f4469676974616c2050616b20527570656500000000000000000000000000000081525060019080519060200190620000ad9291906200023d565b506003600260006101000a81548160ff021916908360ff16021790555033600460006101000a81548173ffffffffffffffffffffffffffffffffffffffff021916908373ffffffffffffffffffffffffffffffffffffffff160217905550600260009054906101000a900460ff1660ff16600a6200012c919062000376565b6305f5e1006200013d9190620004b3565b60038190555060035460056000600460009054906101000a900473ffffffffffffffffffffffffffffffffffffffff1673ffffffffffffffffffffffffffffffffffffffff1673ffffffffffffffffffffffffffffffffffffffff16815260200190815260200160002081905550600460009054906101000a900473ffffffffffffffffffffffffffffffffffffffff1673ffffffffffffffffffffffffffffffffffffffff16600073ffffffffffffffffffffffffffffffffffffffff167fddf252ad1be2c89b69c2b068fc378daa952ba7f163c4a11628f55a4df523b3ef6003546040516200022f9190620002fe565b60405180910390a3620005bf565b8280546200024b906200051e565b90600052602060002090601f0160209004810192826200026f5760008555620002bb565b82601f106200028a57805160ff1916838001178555620002bb565b82800160010185558215620002bb579182015b82811115620002ba5782518255916020019190600101906200029d565b5b509050620002ca9190620002ce565b5090565b5b80821115620002e9576000816000905550600101620002cf565b5090565b620002f88162000514565b82525050565b6000602082019050620003156000830184620002ed565b92915050565b6000808291508390505b60018511156200036d5780860481111562000345576200034462000554565b5b6001851615620003555780820291505b80810290506200036585620005b2565b945062000325565b94509492505050565b6000620003838262000514565b9150620003908362000514565b9250620003bf7fffffffffffffffffffffffffffffffffffffffffffffffffffffffffffffffff8484620003c7565b905092915050565b600082620003d95760019050620004ac565b81620003e95760009050620004ac565b81600181146200040257600281146200040d5762000443565b6001915050620004ac565b60ff84111562000422576200042162000554565b5b8360020a9150848211156200043c576200043b62000554565b5b50620004ac565b5060208310610133831016604e8410600b84101617156200047d5782820a90508381111562000477576200047662000554565b5b620004ac565b6200048c84848460016200031b565b92509050818404811115620004a657620004a562000554565b5b81810290505b9392505050565b6000620004c08262000514565b9150620004cd8362000514565b9250817fffffffffffffffffffffffffffffffffffffffffffffffffffffffffffffffff048311821515161562000509576200050862000554565b5b828202905092915050565b6000819050919050565b600060028204905060018216806200053757607f821691505b602082108114156200054e576200054d62000583565b5b50919050565b7f4e487b7100000000000000000000000000000000000000000000000000000000600052601160045260246000fd5b7f4e487b7100000000000000000000000000000000000000000000000000000000600052602260045260246000fd5b6000600282049050919050565b6116d280620005cf6000396000f3fe6080604052600436106100df576000357c01000000000000000000000000000000000000000000000000000000009004806370a082311161009c578063cae9ca5111610076578063cae9ca511461028e578063dc39d06d146102cb578063dd62ed3e14610308578063fffe4e6014610345576100df565b806370a08231146101e957806395d89b4114610226578063a9059cbb14610251576100df565b806306fdde03146100e4578063095ea7b31461010f57806318160ddd1461014c57806323b872dd14610177578063313ce567146101b4578063552079dc146101df575b600080fd5b3480156100f057600080fd5b506100f9610382565b604051610106919061130c565b60405180910390f35b34801561011b57600080fd5b50610136600480360381019061013191906110bb565b610410565b60405161014391906112f1565b60405180910390f35b34801561015857600080fd5b50610161610502565b60405161016e919061132e565b60405180910390f35b34801561018357600080fd5b5061019e60048036038101906101999190611068565b61055d565b6040516101ab91906112f1565b60405180910390f35b3480156101c057600080fd5b506101c9610808565b6040516101d69190611349565b60405180910390f35b6101e761081b565b005b3480156101f557600080fd5b50610210600480360381019061020b9190610ffb565b610820565b60405161021d919061132e565b60405180910390f35b34801561023257600080fd5b5061023b610869565b604051610248919061130c565b60405180910390f35b34801561025d57600080fd5b50610278600480360381019061027391906110bb565b6108f7565b60405161028591906112f1565b60405180910390f35b34801561029a57600080fd5b506102b560048036038101906102b091906110fb565b610a92565b6040516102c291906112f1565b60405180910390f35b3480156102d757600080fd5b506102f260048036038101906102ed91906110bb565b610c12565b6040516102ff91906112f1565b60405180910390f35b34801561031457600080fd5b5061032f600480360381019061032a9190611028565b610d41565b60405161033c919061132e565b60405180910390f35b34801561035157600080fd5b5061036c600480360381019061036791906110bb565b610dc8565b60405161037991906112f1565b60405180910390f35b6001805461038f90611513565b80601f01602080910402602001604051908101604052809291908181526020018280546103bb90611513565b80156104085780601f106103dd57610100808354040283529160200191610408565b820191906000526020600020905b8154815290600101906020018083116103eb57829003601f168201915b505050505081565b600081600660003373ffffffffffffffffffffffffffffffffffffffff1673ffffffffffffffffffffffffffffffffffffffff16815260200190815260200160002060008573ffffffffffffffffffffffffffffffffffffffff1673ffffffffffffffffffffffffffffffffffffffff168152602001908152602001600020819055508273ffffffffffffffffffffffffffffffffffffffff163373ffffffffffffffffffffffffffffffffffffffff167f8c5be1e5ebec7d5bd14f71427d1e84f3dd0314c0f7b2291e5b200ac8c7c3b925846040516104f0919061132e565b60405180910390a36001905092915050565b6000610558600560008073ffffffffffffffffffffffffffffffffffffffff1673ffffffffffffffffffffffffffffffffffffffff16815260200190815260200160002054600354610ef990919063ffffffff16565b905090565b60006105b182600560008773ffffffffffffffffffffffffffffffffffffffff1673ffffffffffffffffffffffffffffffffffffffff16815260200190815260200160002054610ef990919063ffffffff16565b600560008673ffffffffffffffffffffffffffffffffffffffff1673ffffffffffffffffffffffffffffffffffffffff1681526020019081526020016000208190555061068382600660008773ffffffffffffffffffffffffffffffffffffffff1673ffffffffffffffffffffffffffffffffffffffff16815260200190815260200160002060003373ffffffffffffffffffffffffffffffffffffffff1673ffffffffffffffffffffffffffffffffffffffff16815260200190815260200160002054610ef990919063ffffffff16565b600660008673ffffffffffffffffffffffffffffffffffffffff1673ffffffffffffffffffffffffffffffffffffffff16815260200190815260200160002060003373ffffffffffffffffffffffffffffffffffffffff1673ffffffffffffffffffffffffffffffffffffffff1681526020019081526020016000208190555061075582600560008673ffffffffffffffffffffffffffffffffffffffff1673ffffffffffffffffffffffffffffffffffffffff16815260200190815260200160002054610f2090919063ffffffff16565b600560008573ffffffffffffffffffffffffffffffffffffffff1673ffffffffffffffffffffffffffffffffffffffff168152602001908152602001600020819055508273ffffffffffffffffffffffffffffffffffffffff168473ffffffffffffffffffffffffffffffffffffffff167fddf252ad1be2c89b69c2b068fc378daa952ba7f163c4a11628f55a4df523b3ef846040516107f5919061132e565b60405180910390a3600190509392505050565b600260009054906101000a900460ff1681565b600080fd5b6000600560008373ffffffffffffffffffffffffffffffffffffffff1673ffffffffffffffffffffffffffffffffffffffff168152602001908152602001600020549050919050565b6000805461087690611513565b80601f01602080910402602001604051908101604052809291908181526020018280546108a290611513565b80156108ef5780601f106108c4576101008083540402835291602001916108ef565b820191906000526020600020905b8154815290600101906020018083116108d257829003601f168201915b505050505081565b600061094b82600560003373ffffffffffffffffffffffffffffffffffffffff1673ffffffffffffffffffffffffffffffffffffffff16815260200190815260200160002054610ef990919063ffffffff16565b600560003373ffffffffffffffffffffffffffffffffffffffff1673ffffffffffffffffffffffffffffffffffffffff168152602001908152602001600020819055506109e082600560008673ffffffffffffffffffffffffffffffffffffffff1673ffffffffffffffffffffffffffffffffffffffff16815260200190815260200160002054610f2090919063ffffffff16565b600560008573ffffffffffffffffffffffffffffffffffffffff1673ffffffffffffffffffffffffffffffffffffffff168152602001908152602001600020819055508273ffffffffffffffffffffffffffffffffffffffff163373ffffffffffffffffffffffffffffffffffffffff167fddf252ad1be2c89b69c2b068fc378daa952ba7f163c4a11628f55a4df523b3ef84604051610a80919061132e565b60405180910390a36001905092915050565b600082600660003373ffffffffffffffffffffffffffffffffffffffff1673ffffffffffffffffffffffffffffffffffffffff16815260200190815260200160002060008673ffffffffffffffffffffffffffffffffffffffff1673ffffffffffffffffffffffffffffffffffffffff168152602001908152602001600020819055508373ffffffffffffffffffffffffffffffffffffffff163373ffffffffffffffffffffffffffffffffffffffff167f8c5be1e5ebec7d5bd14f71427d1e84f3dd0314c0f7b2291e5b200ac8c7c3b92585604051610b72919061132e565b60405180910390a38373ffffffffffffffffffffffffffffffffffffffff16638f4ffcb1338530866040518563ffffffff167c0100000000000000000000000000000000000000000000000000000000028152600401610bd594939291906112a5565b600060405180830381600087803b158015610bef57600080fd5b505af1158015610c03573d6000803e3d6000fd5b50505050600190509392505050565b6000600460009054906101000a900473ffffffffffffffffffffffffffffffffffffffff1673ffffffffffffffffffffffffffffffffffffffff163373ffffffffffffffffffffffffffffffffffffffff1614610c6e57600080fd5b8273ffffffffffffffffffffffffffffffffffffffff1663a9059cbb600460009054906101000a900473ffffffffffffffffffffffffffffffffffffffff16846040518363ffffffff167c0100000000000000000000000000000000000000000000000000000000028152600401610ce792919061127c565b602060405180830381600087803b158015610d0157600080fd5b505af1158015610d15573d6000803e3d6000fd5b505050506040513d601f19601f82011682018060405250810190610d39919061116a565b905092915050565b6000600660008473ffffffffffffffffffffffffffffffffffffffff1673ffffffffffffffffffffffffffffffffffffffff16815260200190815260200160002060008373ffffffffffffffffffffffffffffffffffffffff1673ffffffffffffffffffffffffffffffffffffffff16815260200190815260200160002054905092915050565b6000600460009054906101000a900473ffffffffffffffffffffffffffffffffffffffff1673ffffffffffffffffffffffffffffffffffffffff163373ffffffffffffffffffffffffffffffffffffffff1614610e2457600080fd5b3073ffffffffffffffffffffffffffffffffffffffff166323b872dd600460009054906101000a900473ffffffffffffffffffffffffffffffffffffffff1685856040518463ffffffff167c0100000000000000000000000000000000000000000000000000000000028152600401610e9f93929190611245565b602060405180830381600087803b158015610eb957600080fd5b505af1158015610ecd573d6000803e3d6000fd5b505050506040513d601f19601f82011682018060405250810190610ef1919061116a565b905092915050565b600082821115610f0c57610f0b611576565b5b8183610f189190611448565b905092915050565b6000808284610f2f91906113f2565b905083811015610f4257610f41611576565b5b8091505092915050565b6000610f5f610f5a84611389565b611364565b905082815260208101848484011115610f7b57610f7a611637565b5b610f868482856114d1565b509392505050565b600081359050610f9d81611657565b92915050565b600081519050610fb28161166e565b92915050565b600082601f830112610fcd57610fcc611632565b5b8135610fdd848260208601610f4c565b91505092915050565b600081359050610ff581611685565b92915050565b60006020828403121561101157611010611641565b5b600061101f84828501610f8e565b91505092915050565b6000806040838503121561103f5761103e611641565b5b600061104d85828601610f8e565b925050602061105e85828601610f8e565b9150509250929050565b60008060006060848603121561108157611080611641565b5b600061108f86828701610f8e565b93505060206110a086828701610f8e565b92505060406110b186828701610fe6565b9150509250925092565b600080604083850312156110d2576110d1611641565b5b60006110e085828601610f8e565b92505060206110f185828601610fe6565b9150509250929050565b60008060006060848603121561111457611113611641565b5b600061112286828701610f8e565b935050602061113386828701610fe6565b925050604084013567ffffffffffffffff8111156111545761115361163c565b5b61116086828701610fb8565b9150509250925092565b6000602082840312156111805761117f611641565b5b600061118e84828501610fa3565b91505092915050565b6111a08161147c565b82525050565b6111af8161148e565b82525050565b60006111c0826113ba565b6111ca81856113d0565b93506111da8185602086016114e0565b6111e381611646565b840191505092915050565b60006111f9826113c5565b61120381856113e1565b93506112138185602086016114e0565b61121c81611646565b840191505092915050565b611230816114ba565b82525050565b61123f816114c4565b82525050565b600060608201905061125a6000830186611197565b6112676020830185611197565b6112746040830184611227565b949350505050565b60006040820190506112916000830185611197565b61129e6020830184611227565b9392505050565b60006080820190506112ba6000830187611197565b6112c76020830186611227565b6112d46040830185611197565b81810360608301526112e681846111b5565b905095945050505050565b600060208201905061130660008301846111a6565b92915050565b6000602082019050818103600083015261132681846111ee565b905092915050565b60006020820190506113436000830184611227565b92915050565b600060208201905061135e6000830184611236565b92915050565b600061136e61137f565b905061137a8282611545565b919050565b6000604051905090565b600067ffffffffffffffff8211156113a4576113a3611603565b5b6113ad82611646565b9050602081019050919050565b600081519050919050565b600081519050919050565b600082825260208201905092915050565b600082825260208201905092915050565b60006113fd826114ba565b9150611408836114ba565b9250827fffffffffffffffffffffffffffffffffffffffffffffffffffffffffffffffff0382111561143d5761143c6115a5565b5b828201905092915050565b6000611453826114ba565b915061145e836114ba565b925082821015611471576114706115a5565b5b828203905092915050565b60006114878261149a565b9050919050565b60008115159050919050565b600073ffffffffffffffffffffffffffffffffffffffff82169050919050565b6000819050919050565b600060ff82169050919050565b82818337600083830152505050565b60005b838110156114fe5780820151818401526020810190506114e3565b8381111561150d576000848401525b50505050565b6000600282049050600182168061152b57607f821691505b6020821081141561153f5761153e6115d4565b5b50919050565b61154e82611646565b810181811067ffffffffffffffff8211171561156d5761156c611603565b5b80604052505050565b7f4e487b7100000000000000000000000000000000000000000000000000000000600052600160045260246000fd5b7f4e487b7100000000000000000000000000000000000000000000000000000000600052601160045260246000fd5b7f4e487b7100000000000000000000000000000000000000000000000000000000600052602260045260246000fd5b7f4e487b7100000000000000000000000000000000000000000000000000000000600052604160045260246000fd5b600080fd5b600080fd5b600080fd5b600080fd5b6000601f19601f8301169050919050565b6116608161147c565b811461166b57600080fd5b50565b6116778161148e565b811461168257600080fd5b50565b61168e816114ba565b811461169957600080fd5b5056fea2646970667358221220fb8c7339c6702f2e835a9684f9186d1292b1799b0014ea70c9fa283f446c6a7764736f6c63430008060033",
  "immutableReferences": {},
  "source": "// SPDX-License-Identifier: MIT\npragma solidity ^0.8.5;\n\n// library that we use in this contract for valuation\nlibrary SafeMath {\n    function mul(uint256 a, uint256 b) internal pure returns (uint256) {\n        uint256 c = a * b;\n        assert(a == 0 || c / a == b);\n        return c;\n    }\n    function div(uint256 a, uint256 b) internal pure returns (uint256) {\n        assert(b > 0); \n        uint256 c = a / b;\n        assert(a == b * c + a % b); \n        return c;\n    }\n    function sub(uint256 a, uint256 b) internal pure returns (uint256) {\n        assert(b <= a);\n        return a - b;\n    }\n    function add(uint256 a, uint256 b) internal pure returns (uint256) {\n        uint256 c = a + b;\n        assert(c >= a);\n        return c;\n    }\n}\n\n// interface of your Customize token\ninterface IERC20{\n    \n    function totalSupply() external view returns (uint);\n    function balanceOf(address tokenOwner) external view returns (uint balance);\n    function allowance(address tokenOwner, address spender) external view returns (uint remaining);\n    function transfer(address to, uint tokens) external returns (bool success);\n    function approve(address spender, uint tokens) external returns (bool success);\n    function transferFrom(address from, address to, uint tokens) external returns (bool success);\n    \n    event Transfer(address indexed _from, address indexed _to, uint256 _value);\n    event Approval(address indexed _owner, address indexed _spender, uint256 _value);\n\n}\n// ----------------------------------------------------------------------------\n// Contract function to receive approval and execute function in one call\n// Borrowed from MiniMeToken\n// ----------------------------------------------------------------------------\nabstract contract ApproveAndCallFallBack {\n    function receiveApproval(address from, uint256 tokens, address token, bytes memory data) public virtual;\n}\n\n// ----------------------------------------------------------------------------\n// ERC20 Token, with the addition of symbol, name and decimals and assisted\n// ----------------------------------------------------------------------------\ncontract PAKToken is IERC20 {\n    using SafeMath for uint256;\n\n    string public symbol;\n    string public  name;\n    uint8 public decimals;\n    uint256 internal _totalSupply;\n    \n    address owner;\n    \n    mapping(address => uint256) balances;\n    mapping(address => mapping(address => uint256)) allowed;\n\n    // functions with this modifier can only be executed by the owner\n    modifier onlyOwner() {\n        if (msg.sender != owner) {\n            revert();\n        }\n         _;\n    }\n\t\n    // ------------------------------------------------------------------------\n    // Constructor\n    // ------------------------------------------------------------------------\n    constructor() public {\n        symbol = \"PKT\";\n        name = \"Digital Pak Rupee\";\n        decimals = 3;\n        owner = msg.sender;\n        // 100 mill initial supply \n        _totalSupply = 100000000 * 10**uint(decimals); \n        balances[owner] = _totalSupply;\n\t\temit Transfer(address(0),owner,_totalSupply);\n    }\n\n    \n    // ------------------------------------------------------------------------\n    // Total supply\n    // ------------------------------------------------------------------------\n    function totalSupply() public view override returns (uint256) {\n        return _totalSupply.sub(balances[address(0)]);\n    }\n\n    // ------------------------------------------------------------------------\n    // The balanceOf() function provides the number of tokens held by a given address.\n    // ------------------------------------------------------------------------\n    function balanceOf(address tokenOwner) public view override returns (uint256 balance) {\n        return balances[tokenOwner];\n    }\n\n\n    // ------------------------------------------------------------------------\n    // Transfer the balance from token owner's account to `to` account\n    // - Owner's account must have sufficient balance to transfer\n    // - 0 value transfers are allowed\n    // ------------------------------------------------------------------------\n    function transfer(address to, uint256 tokens) public override returns (bool success) {\n        balances[msg.sender] = balances[msg.sender].sub(tokens);\n        balances[to] = balances[to].add(tokens);\n        emit Transfer(msg.sender, to, tokens);\n        return true;\n    }\n\n\n    // ------------------------------------------------------------------------\n    // Token owner can approve for `spender` to transferFrom(...) `tokens`\n    // from the token owner's account\n    // ------------------------------------------------------------------------\n    function approve(address spender, uint tokens) public override returns (bool success) {\n        allowed[msg.sender][spender] = tokens;\n        emit Approval(msg.sender, spender, tokens);\n        return true;\n    }\n\n\n    // ------------------------------------------------------------------------\n    // Transfer `tokens` from the `from` account to the `to` account\n    //\n    // The calling account must already have sufficient tokens approve(...)-d\n    // for spending from the `from` account and\n    // - From account must have sufficient balance to transfer\n    // - Spender must have sufficient allowance to transfer\n    // - 0 value transfers are allowed\n    // ------------------------------------------------------------------------\n    function transferFrom(address from, address to, uint tokens) public override returns (bool success) {\n        balances[from] = balances[from].sub(tokens);\n        allowed[from][msg.sender] = allowed[from][msg.sender].sub(tokens);\n        balances[to] = balances[to].add(tokens);\n        emit Transfer(from, to, tokens);\n        return true;\n    }\n\n\n    // ------------------------------------------------------------------------\n    // Returns the amount of tokens approved by the owner that can be\n    // transferred to the spender's account\n    // ------------------------------------------------------------------------\n    function allowance(address tokenOwner, address spender) public view override returns (uint256 remaining) {\n        return allowed[tokenOwner][spender];\n    }\n\n\n    // ------------------------------------------------------------------------\n    // Token owner can approve for `spender` to transferFrom(...) `tokens`\n    // from the token owner's account. The `spender` contract function\n    // `receiveApproval(...)` is then executed\n    // ------------------------------------------------------------------------\n    function approveAndCall(address spender, uint tokens, bytes memory data) public returns (bool success) {\n        allowed[msg.sender][spender] = tokens;\n        emit Approval(msg.sender, spender, tokens);\n\t\tApproveAndCallFallBack(spender).receiveApproval(msg.sender, tokens, address(this), data);\n        return true;\n    }\n\n    // ------------------------------------------------------------------------\n    // Don't Accept ETH\n    // ------------------------------------------------------------------------\n    function fallback ()  public payable {\n        revert();\n    }\n    // ------------------------------------------------------------------------\n    // Owner can transfer out any accidentally sent RTBN tokens\n    // ------------------------------------------------------------------------\n    function transferAnyERC20Token(address tokenAddress, uint256 tokens) public onlyOwner returns (bool success) {\n        return IERC20(tokenAddress).transfer(owner, tokens);\n    }\n    \n    // ------------------------------------------------------------------------\n    // Owner can transfer out any accidentally sent RTBN tokens\n    // ------------------------------------------------------------------------\n    function transferReserveToken(address tokenAddress, uint256 tokens) public onlyOwner returns (bool success) {\n        return this.transferFrom(owner,tokenAddress, tokens);\n    }\n    \n}",
  "sourcePath": "/Users/asadiqbal/Documents/Blockchain Development/ERC20-PKT/contracts/PAKToken.sol",
  "compiler": {
    "name": "solc",
    "version": "0.8.6+commit.11564f7e.Emscripten.clang"
  },
  "schemaVersion": "3.4.1",
  "updatedAt": "2021-07-31T00:51:48.140Z",
  "devdoc": {
    "kind": "dev",
    "methods": {},
    "version": 1
  },
  "userdoc": {
    "kind": "user",
    "methods": {},
    "version": 1
  }
}